S0140000536569736F4D616368696E652E7372656358
S11300000C9434000C9451000C9451000C94510045
S11300100C9451000C9451000C9451000C94510018
S11300200C9451000C9451000C9451000C94510008
S11300300C9451000C9451000C9451000C945100F8
S11300400C9451000C9451000C9451000C945100E8
S11300500C9451000C9451000C9451000C945100D8
S11300600C9451000C94510011241FBECFEFD8E022
S1130070DEBFCDBF11E0A0E0B1E0E2E5F4E002C0F4
S113008005900D92AA30B107D9F721E0AAE0B1E0BA
S113009001C01D92AF30B207E1F70E947D000C94BD
S11300A027020C940000CF93DF93DC01662399F0C0
S11300B06150262F30E02F5F3F4F280F391FE0ECAF
S11300C0F0E0C6ECD0E0908195FFFDCF8D91888360
S11300D0A217B307C1F7DF91CF9108954F9902C0DA
S11300E00A9602C0189B4496E2E0F1E09583868369
S11300F068E0CF010E94530008951092C50083E385
S11301008093C4001092C00088E18093C10096E0FF
S11301109093C20087B1807F87B988B18F6088B916
S113012084B18C7384B985B1836C85B98AB18376C3
S11301308AB98BB18C698BB92FEF34E38CE02150F1
S113014030408040E1F700C00000C2E0D1E09B8372
S1130150809100018E8368E0CE010E94530083E009
S11301608B8381E08E83CC24C3946894DD24D1F8FE
S11301700F2EF6E0AF2EF02D00E011E00F2EF3E08D
S1130180BF2EF02D0F2EFEE1EF2EF12CF02D339922
S11301900EC081E090E00E946E0080910C0190916D
S11301A00D01816090930D0180930C0109C0809131
S11301B00A0190910B018E7F90930B0180930A01A9
S11301C032990EC082E090E00E946E0080910C0192
S11301D090910D01826090930D0180930C0109C0F0
S11301E080910A0190910B018D7F90930B01809374
S11301F00A0131990EC083E090E00E946E00809164
S11302000C0190910D01846090930D0180930C0179
S113021009C080910A0190910B018B7F90930B018F
S113022080930A0130990EC084E090E00E946E0031
S113023080910C0190910D01886090930D01809341
S11302400C0109C080910A0190910B01877F909362
S11302500B0180930A0119990EC085E090E00E9479
S11302606E0080910C0190910D01806190930D01BD
S113027080930C0109C080910A0190910B018F7E3B
S113028090930B0180930A014A990EC086E090E096
S11302900E946E0080910C0190910D0180629093F8
S11302A00D0180930C0109C080910A0190910B010A
S11302B08F7D90930B0180930A014B990EC087E0C8
S11302C090E00E946E0080910C0190910D01806479
S11302D090930D0180930C0109C080910A019091C3
S11302E00B018F7B90930B0180930A014C990EC0F4
S11302F088E090E00E946E0080910C0190910D01C5
S1130300806890930D0180930C0109C080910A01CB
S113031090910B018F7790930B0180930A011E99A2
S11303200EC089E090E00E946E0080910C019091D3
S11303300D01916090930D0180930C0109C080918F
S11303400A0190910B019E7F90930B0180930A0107
S11303501F990EC08AE090E00E946E0080910C010B
S113036090910D01926090930D0180930C0109C04E
S113037080910A0190910B019D7F90930B018093D2
S11303800A0180910E01813011F54F9B46C0189BE4
S113039044C0809100019091010101968F31910533
S11303A028F4909301018093000104C0F0920101AC
S11303B0E0920001AB82F80180818E8368E0CE0177
S11303C00E945300BB82CE8210920E0126C082305E
S11303D021F54F9B36C0189B34C080910001909149
S11303E00101019729F0909301018093000106C057
S11303F081E090E09093010180930001AB82F801C9
S113040080818E8368E0CE010E945300BB82CE823D
S113041010920E014F9B07C017C04F9907C08091DF
S11304200E0181110CC0D0920E01B1CE1899AFCE3D
S113043080910E018111ABCEC0920E01A8CE83B182
S1130440A6CE4F9BFCCFF2CF189BF6CFA0CEF8944C
S1050450FFCFD8
S10D045211007EFF0603000001EF15
S9030000FC
